:10000000002000100D010000D5000000D700000006
:1000100000000000000000000000000047DDFFEFCE
:10002000000000000000000000000000D9000000F7
:100030000000000000000000DB000000DD00000008
:10004000DF000000DF000000DF000000DF00000034
:10005000DF000000DF000000DF000000DF00000024
:10006000DF000000DF000000DF000000DF00000014
:10007000DF000000DF000000DF000000DF00000004
:10008000DF000000DF000000DF000000DF000000F4
:10009000DF000000DF0000000000000000000000A2
:1000A000DF000000DF000000DF00000000000000B3
:1000B000DF000000DF000000DF000000DF000000C4
:1000C000B407000000000010000000000000001055
:1000D0002C040000FEE7FEE7FEE7FEE7FEE7FEE792
:1000E000030030B5091ACC181D1AAA4203D91D689D
:1000F00004332560F7E730BD0300002210B51C1A59
:10010000A14202D91A600433F9E710BD10B50C4CB6
:100110000C4B9C4206D2A26861682068FFF7E0FFA2
:100120000C34F5E7084B9C4205D261682068FFF764
:10013000E3FF0834F6E700F097FA00F0E1F8FEE795
:10014000C0000000CC000000D4000000FFFFFFFF53
:10015000FFFFFFFFFFFFFFFFFFFFFFFFFFFFFFFFAF
:10016000FFFFFFFFFFFFFFFFFFFFFFFFFFFFFFFF9F
:10017000FFFFFFFFFFFFFFFFFFFFFFFFFFFFFFFF8F
:10018000FFFFFFFFFFFFFFFFFFFFFFFFFFFFFFFF7F
:10019000FFFFFFFFFFFFFFFFFFFFFFFFFFFFFFFF6F
:1001A000FFFFFFFFFFFFFFFFFFFFFFFFFFFFFFFF5F
:1001B000FFFFFFFFFFFFFFFFFFFFFFFFFFFFFFFF4F
:1001C000FFFFFFFFFFFFFFFFFFFFFFFFFFFFFFFF3F
:1001D000FFFFFFFFFFFFFFFFFFFFFFFFFFFFFFFF2F
:1001E000FFFFFFFFFFFFFFFFFFFFFFFFFFFFFFFF1F
:1001F000FFFFFFFFFFFFFFFFFFFFFFFFFFFFFFFF0F
:10020000FFFFFFFFFFFFFFFFFFFFFFFFFFFFFFFFFE
:10021000FFFFFFFFFFFFFFFFFFFFFFFFFFFFFFFFEE
:10022000FFFFFFFFFFFFFFFFFFFFFFFFFFFFFFFFDE
:10023000FFFFFFFFFFFFFFFFFFFFFFFFFFFFFFFFCE
:10024000FFFFFFFFFFFFFFFFFFFFFFFFFFFFFFFFBE
:10025000FFFFFFFFFFFFFFFFFFFFFFFFFFFFFFFFAE
:10026000FFFFFFFFFFFFFFFFFFFFFFFFFFFFFFFF9E
:10027000FFFFFFFFFFFFFFFFFFFFFFFFFFFFFFFF8E
:10028000FFFFFFFFFFFFFFFFFFFFFFFFFFFFFFFF7E
:10029000FFFFFFFFFFFFFFFFFFFFFFFFFFFFFFFF6E
:1002A000FFFFFFFFFFFFFFFFFFFFFFFFFFFFFFFF5E
:1002B000FFFFFFFFFFFFFFFFFFFFFFFFFFFFFFFF4E
:1002C000FFFFFFFFFFFFFFFFFFFFFFFFFFFFFFFF3E
:1002D000FFFFFFFFFFFFFFFFFFFFFFFFFFFFFFFF2E
:1002E000FFFFFFFFFFFFFFFFFFFFFFFFFFFFFFFF1E
:1002F000FFFFFFFFFFFFFFFFFFFFFFFFFFFFFFFF0E
:10030000F0B585B000F082F80522234B1A60043A5C
:1003100019681142FCD120230393039B013B0393F3
:10032000002BFAD1072101261C4A11601C4A4B31CF
:1003300011608220800058431A490024411880200F
:10034000800001910818184DAC4665462D6835426D
:10035000FBD0156807683D708127BF00BC46019F30
:100360000568BC4467463F68BD4210D13500016056
:100370000134102C01D0002DE5D046241460002D4E
:1003800003D05321F31A1160D3E72C00DBE70135CA
:1003900005600025ECE7C046208000400880004052
:1003A000008000400000001014800040F8B5822753
:1003B0008026124CBF00B6003A000021200000F059
:1003C00077F932000021200000F072F981230C4AF5
:1003D000E5199B00E250A4513A002800002100F0EA
:1003E00067F932002800002100F062F98123DB0068
:1003F000E550044A044BE250F8BDC046000000102E
:10040000FF010010070400100C040000DF21664B00
:10041000F0B51A6800240A40ED2109020A431A6067
:10042000012262480260624804600260614823342D
:10043000046018685C3420400143180019605E496C
:100440000B681342FCD003215C4C5D4E2368812570
:100450008B4301390B43236003245A4B5A4F1C60D2
:1004600000245A4B1C601A600468594BE4B22343C1
:1004700003608023574C5B0220680343236030688D
:10048000554B18403060554E306818403060544E1F
:10049000306818403060534E306818403060524E1B
:1004A000306818403060514E306818403060504E0F
:1004B0003068184030604F4E3068184030604E4809
:1004C0004E4E016030681840084330604C4E306832
:1004D0001840104330604B4E306818401043306075
:1004E000494806683E402E430660484806683E403C
:1004F0002E430660464E30683840284330604548F9
:1005000006683E4080273743434E076030681840F6
:100510003060424E306818403060414E30681840BC
:100520003060404E3068184030603F4E30681840B0
:10053000084330603D4E30681840084330603C4E00
:1005400030681840084330603A4E3068184008431D
:100550003060394E306818403060384E306818408E
:100560003060374E3068184010433060354E306888
:10057000034013433360344B1A60802320685B01CF
:10058000034303202360314B1860314B1A60314B19
:100590001A60314B1960314B09311960304B1A60C8
:1005A0000822304B1A60F0BD38820440408004407D
:1005B00044800440088004400C80044010C0034084
:1005C000404004407080044040FBFFFF74800440C2
:1005D00003ED000080800440C0FBFFFF4440044066
:1005E0000040044020400440244004405440044063
:1005F0005840044070400440B04004404C40044027
:100600006440044010400440784004407C40044072
:1006100080400440944004408440044088400440AA
:100620009C400440AC400440084004402840044042
:100630005C4004408C400440144004403840044076
:10064000A4400440A8400440988004400C8000402E
:1006500008800040948004401000044000000440E2
:100660009C8004401080054070B50D4E0D4DAD1BB3
:10067000AD1006D00024A300F35801349847A542DA
:10068000F9D100F087F8084E084DAD1BAD1006D02B
:100690000024A300F35801349847A542F9D170BD56
:1006A000A0070000A0070000A0070000A8070000A6
:1006B000F0B5830746D0541E002A42D0CEB20200C5
:1006C000032502E01A00013C3BD3531C16702B4259
:1006D000F8D1032C2DD9FF220A40150215432A0414
:1006E00015430F2C16D92700103F3F093E01B44691
:1006F0001E001A0010366644156055609560D5607E
:100700001032B242F8D10F2201373F01DB191440F9
:10071000032C0ED9261FB608B700BC461A001F1DB1
:10072000674420C2BA42FCD103220136B6009B19AD
:100730001440002C05D0C9B21C19197001339C4219
:10074000FBD1F0BD14000300C3E7C04610B5064C52
:100750002378002B07D1054B002B02D0044800E082
:1007600000BF0123237010BD100400100000000022
:10077000B4070000044B10B5002B03D00349044814
:1007800000E000BF10BDC0460000000014040010CF
:10079000B4070000F8B5C046F8BC08BC9E467047D8
:1007A000AD03000075070000F8B5C046F8BC08BCF2
:0407B0009E467047AA
:040000030000010DEB
:00000001FF
