:100000000020001005020000D5000000D70000000D
:100010000000000000000000000000004FDCFFEFC7
:10002000000000000000000000000000D9000000F7
:100030000000000000000000DB000000DD00000008
:10004000DF000000DF000000DF000000DF00000034
:10005000DF000000DF000000DF000000DF00000024
:10006000DF000000DF000000DF000000DF00000014
:10007000DF000000DF000000DF000000DF00000004
:10008000DF000000DF000000DF000000E1000000F2
:10009000DF000000890100000000000000000000F7
:1000A000DF000000DF000000DF00000000000000B3
:1000B000DF000000DF000000DF000000DF000000C4
:1000C000A408000000000010200000002000001024
:1000D0003C040000FEE7FEE7FEE7FEE7FEE7FEE782
:1000E00002211D4AF0B511601F22012000270724BC
:1000F0001A4D1B4B29601B4E1A601B4B3160186058
:100100001F601A4B1A68121822401A608A40184C55
:10011000125994466446174A14600F4A37602860A3
:100120001060154A1B6812689B01801A8222920097
:100130005043124C1A1840331B18114D1148121914
:100140001B199A4206D02C680C42FCD0147801325C
:100150000460F6E7F0BDC046044001400480014061
:100160000080014008000250040002503C040010CE
:1001700000000010C03F02502000001024000010BA
:100180000C800540088005400F4B10B51A680F23FE
:100190001340062B08D10D4B1A681E231A4202D0B9
:1001A00001220B4B1A7010BD07210A40042A02D10C
:1001B00000F0A6F8F7E7002BF5D1064B1B685A1E96
:1001C0009341034A1370EEE708800040148000401A
:1001D0003804001018800040030030B5091ACC180C
:1001E0001D1AAA4203D91D6804332560F7E730BD04
:1001F0000300002210B51C1AA14202D91A60043370
:10020000F9E710BD10B50C4C0C4B9C4206D2A2680D
:1002100061682068FFF7E0FF0C34F5E7084B9C426B
:1002200005D261682068FFF7E3FF0834F6E700F0C5
:1002300093FA00F0A9F8FEE7C0000000CC0000002F
:10024000D4000000FFFFFFFFFFFFFFFFFFFFFFFFE6
:10025000FFFFFFFFFFFFFFFFFFFFFFFFFFFFFFFFAE
:10026000FFFFFFFFFFFFFFFFFFFFFFFFFFFFFFFF9E
:10027000FFFFFFFFFFFFFFFFFFFFFFFFFFFFFFFF8E
:10028000FFFFFFFFFFFFFFFFFFFFFFFFFFFFFFFF7E
:10029000FFFFFFFFFFFFFFFFFFFFFFFFFFFFFFFF6E
:1002A000FFFFFFFFFFFFFFFFFFFFFFFFFFFFFFFF5E
:1002B000FFFFFFFFFFFFFFFFFFFFFFFFFFFFFFFF4E
:1002C000FFFFFFFFFFFFFFFFFFFFFFFFFFFFFFFF3E
:1002D000FFFFFFFFFFFFFFFFFFFFFFFFFFFFFFFF2E
:1002E000FFFFFFFFFFFFFFFFFFFFFFFFFFFFFFFF1E
:1002F000FFFFFFFFFFFFFFFFFFFFFFFFFFFFFFFF0E
:10030000F0B5012453271B4B1B68234231D08222B6
:10031000194D92002B6819485343194A0168D318A4
:10032000802292009A18166831708126B600B44671
:100330009C44664611683668B14213D113602200AE
:1003400010490B680133102B01D0002A08D000237C
:100350000B609A420AD02B68E31A2B600760D2E741
:100360000B60D0E7013111600022E9E7462303600A
:10037000C9E7F0BD1480004020000010008000405C
:10038000240000103404001073B500F0E7F8FF22D9
:10039000384B12011A600123374A3848136001684C
:1003A000374A14261140022211430160354836496C
:1003B0000468364D2143016003203549354C0860FF
:1003C000354980180B602060344C2360344C226027
:1003D000344C22600B242C60334D2E60334D2B6047
:1003E000334D2A60334D2C60334C2260334A106009
:1003F00010681842FCD120230193019B013B01931B
:10040000002BFAD1C7220A6080222D4C9203226071
:10041000012252202B492C4D0A602C490860296882
:100420002B48084080210902014307202960294DFB
:1004300029688143080003210143022029602649DD
:100440000860264906300A60254908602549264883
:100450000A60802109032160244908600968244852
:100460000139016023490A6023490A600093009B17
:100470000133FBE70080025098800440684004404C
:10048000C0FBFFFF80800440001E04000000044009
:100490000C800040048004400880004094800440A8
:1004A0001000044004000440708104409C8004401B
:1004B00010800540008005400480054020800040F9
:1004C00000E100E00480004014E400E0008000400F
:1004D000FF3FFFFF744004401440014018400140BA
:1004E0007440014024400140D41F000018800140A6
:1004F000088001401480014004800140F8B5822743
:100500008026124CBF00B6003A000021200000F007
:1005100047F932000021200000F042F981230C4A03
:10052000E5199B00E250A4513A002800002100F098
:1005300037F932002800002100F032F98123DB0076
:10054000E550044A044BE250F8BDC04624000010B8
:10055000230200102B0400100C040000DF22ED2009
:1005600070B50024554900020B68134003430B602B
:10057000534BDE3A1A60534B1C601A60524B2334C3
:100580001C600B685C3423401843086008004F4926
:100590000B681342FCD0032402214D4D4D4E2B68B5
:1005A000A3430B432B604C4B4C4D1C6000244C4B25
:1005B0001C601A6004684B4BE4B223430360802341
:1005C00049485B0204682343484C03602068484B59
:1005D00018402060474C206818402060464C206836
:1005E00018402060454C206818402060444C20682A
:1005F00018402060434C206818402060424C20681E
:1006000018402060414C2068184020604048414C10
:10061000016020681840084320603F4C2068184063
:10062000104320603D4C206818401043206081201A
:1006300034682C4004433460394E34682C40044301
:100640003460384E34682C402043374C306020688A
:100650002840802505432560344C206818402060E0
:10066000334C206818402060324C206818402060CD
:10067000314C206818402060304C206818400843F6
:1006800020602F4C20681840084320602D4C2068C3
:10069000184001432C4821600168194001602B4833
:1006A0000168194001602A4801681940114301603E
:1006B000284801680B401A43026070BD388204402C
:1006C0004080044044800440088004400C80044082
:1006D00010C00340784004407080044040FBFFFF9E
:1006E0007480044003ED00008080044040400440DA
:1006F000C0FBFFFF44400440004004402040044051
:100700002440044054400440584004407040044099
:10071000B04004404C400440644004401040044059
:100720007C400440804004409440044084400440A5
:10073000884004409C400440AC40044008400440D1
:100740005C4004408C400440144004403840044065
:10075000A4400440A840044070B50D4E0D4DAD1BA3
:10076000AD1006D00024A300F35801349847A542E9
:10077000F9D100F087F8084E084DAD1BAD1006D03A
:100780000024A300F35801349847A542F9D170BD65
:1007900090080000900800009008000098080000F1
:1007A000F0B5830746D0541E002A42D0CEB20200D4
:1007B000032502E01A00013C3BD3531C16702B4268
:1007C000F8D1032C2DD9FF220A40150215432A0423
:1007D00015430F2C16D92700103F3F093E01B446A0
:1007E0001E001A0010366644156055609560D5608D
:1007F0001032B242F8D10F2201373F01DB19144009
:10080000032C0ED9261FB608B700BC461A001F1DC0
:10081000674420C2BA42FCD103220136B6009B19BC
:100820001440002C05D0C9B21C19197001339C4228
:10083000FBD1F0BD14000300C3E7C04610B5064C61
:100840002378002B07D1054B002B02D0044800E091
:1008500000BF0123237010BD400400100000000001
:10086000A4080000044B10B5002B03D00349044832
:1008700000E000BF10BDC0460000000044040010AE
:10088000A4080000F8B5C046F8BC08BC9E467047F6
:10089000FD04000065080000F8B5C046F8BC08BCBF
:0408A0009E467047B9
:1008A4001000000020000000400000008000000054
:1008B4000001000000020000000400000008000025
:0400000300000205F2
:00000001FF
